:100000001DC02CC0AEC12AC029C028C027C026C030
:1000100025C024C023C022C021C020C01FC01EC0D4
:100020001DC01CC01BC01AC0D7C118C017C016C045
:1000300015C014C013C012C011C010C011241FBEBF
:10004000CFEFD2E0DEBFCDBF22E0A0E0B1E001C043
:100050001D92A231B207E1F7DCD080C2D1CFFC0102
:10006000608311821282138214820895FC0167FD5D
:1000700012C08081882369F091E08BB3982B9BBBE1
:1000800080E090E1A0E0B0E081839283A383B48319
:10009000089598E0F2CF683FD9F36A3F18F06D3FBA
:1000A00041F30895645F633020F70895FC014181B6
:1000B000528163817481411551056105710599F083
:1000C00041505109610971094183528363837483EB
:1000D000452B462B472B39F48081882329F08EEF5E
:1000E0009BB389238BBB089587EFFACFFC018081F6
:1000F0006623B1F0882341F181E09BB3892B8BBB50
:10010000862F90E0A0E0B0E02BE0880F991FAA1F97
:10011000BB1F2A95D1F781839283A383B48308956B
:10012000882349F08EEF9BB389238BBB1182128207
:1001300013821482089587EF9BB389238BBB1182AE
:10014000128213821482089588E0D7CF0895CF9346
:10015000DF9383E0D1D082E0CFD081E0CDD082E0C8
:10016000CBD08AE0C9D0C0E0D0E0CE01EFD1C4D07E
:100170002196CA30D105C9F78CE0BED0C1E2E0E0DB
:10018000F0E0C09357008491B7D0E2E0F0E0C09374
:1001900057008491B1D0E4E0F0E0C093570084911F
:1001A000ABD0EFE0F0E0C09357008491A5D0EEE033
:1001B000F0E0C093570084919FD0E1E1F0E0C0935C
:1001C0005700849199D0E0E1F0E0C093570084910A
:1001D00093D0E3E1F0E0C093570084918DD0E2E149
:1001E000F0E0C0935700849187D0E5E1F0E0C09340
:1001F0005700849181D0E7E1F0E0C09357008491EB
:100200007BD0E6E1F0E0C09357008491DF91CF917D
:1002100073C0CF93DF931F92CDB7DEB7D09AD39A36
:10022000DB98D89860E085E091E019DF61E080E03C
:1002300091E015DF39D055D189DF89DF78940CC082
:1002400070D1811117C07DD0811122C085E091E06D
:100250002DDF80E091E02ADFCE0101966BD188236B
:1002600079F3698185E091E001DF898145D059D139
:10027000882349F3CE0101964CD0882321F369816C
:1002800080E091E0F3DE898152D15BD08823F1F2E6
:100290005DD0182F682F85E091E028DF612F80E086
:1002A00091E024DF56D0D2CFCF93DF931F92CDB70A
:1002B000DEB7BA9AD59A979A8BB780618BBF1092A6
:1002C0000C0210920D0210928A0110928B0180ECA8
:1002D0008093B2008091B1008983E0EBF0E08081EF
:1002E000898389811082E0E7F0E080818F7E8083BE
:1002F0000F90DF91CF910895ADE0B2E0EC91F0E086
:10030000E457FE4F80838C918F5F8F778C93C29AD6
:100310000895DC0120918A0190918B01291779F0D1
:10032000E0918A01F0E0E65FFE4F80818C9380913E
:100330008A018F5F8F7780938A0181E0089580E042
:1003400008958091110282958170089580910E0226
:10035000089580911102877E8093110210920E02FF
:1003600008951F920F920FB60F9211242F938F931F
:100370009F93EF93FF93CF9925C010921002809125
:100380001102857F809311028430B9F020910C0214
:1003900090910D02291789F0E0910C02F0E0E457EA
:1003A000FE4F908190930F0290910C029F5F9F7778
:1003B00090930C0284608093110282FB882780F95D
:1003C0008093B000FF91EF919F918F912F910F90AB
:1003D0000FBE0F901F9018951F920F920FB60F929D
:1003E00011242F933F938F939F93EF93FF93C29882
:1003F0009091B00080911002882309F43FC0809151
:1004000011028430B9F030910C0220910D023217A4
:1004100089F0E0910C02F0E0E457FE4F2081209338
:100420000F0220910C022F5F2F7720930C02846023
:100430008093110282FB882780F98093B00080911D
:1004400011028630F1F1D8F1883011F08C3029F4A6
:1004500090930E028061809311029091100281E0CE
:10046000892780931002FF91EF919F918F913F9187
:100470002F910F900FBE0F901F9018958091110231
:1004800082FD0CC01092B0009F3099F0903F29F788
:1004900080911102886080931102DFCF80910F025A
:1004A0008093B000809111028B7F809311029F3066
:1004B00069F780911102826080931102CECF823061
:1004C00061F68D7F80931102E0918B01F0E0E65F91
:1004D000FE4F908380918B018F5F8F7780938B018C
:1004E000BCCFCF93DF931F92CDB7DEB710928600BB
:1004F0008FE190E0909382008093810086E080936A
:10050000840088E180938500E0E7F0E080818F7DC2
:10051000808380918000898389810F90DF91CF91C2
:1005200008958091860085FB882780F9089580933F
:1005300080000895FC019091860097FD02C080E044
:10054000089580918000808381E00895E199FECF35
:100550009FBB8EBBE09A99278DB30895F894FFCF87
:00000001FF
