:100000001DC02CC0B0C12AC029C028C027C026C02E
:1000100025C024C023C022C021C020C01FC01EC0D4
:100020001DC01CC01BC01AC0DEC118C017C016C03E
:1000300015C014C013C012C011C010C011241FBEBF
:10004000CFEFD2E0DEBFCDBF22E0A0E0B1E001C043
:100050001D92A231B207E1F7DCD085C2D1CFFC01FD
:10006000608311821282138214820895FC0167FD5D
:1000700012C08081882369F081E09BB3982B9BBBE1
:1000800080E090E1A0E0B0E081839283A383B48319
:10009000089588E0F2CF683FD9F36A3F18F06D3FCA
:1000A00041F30895645F633020F70895FC014181B6
:1000B000528163817481411551056105710599F083
:1000C00041505109610971094183528363837483EB
:1000D000452B462B472B39F48081882329F09EEF4E
:1000E0008BB389238BBB089597EFFACFFC018081F6
:1000F0006623B1F0882341F191E08BB3892B8BBB50
:10010000862F90E0A0E0B0E02BE0880F991FAA1F97
:10011000BB1F2A95D1F781839283A383B48308956B
:10012000882349F09EEF8BB389238BBB1182128207
:1001300013821482089597EF8BB389238BBB1182AE
:10014000128213821482089598E0D7CF0895CF9336
:10015000DF9383E0D1D082E0CFD081E0CDD081E0C9
:10016000CBD08AE0C9D0C0E0D0E0CE01F4D1C4D079
:100170002196CA30D105C9F78CE0BED0C1E2E0E0DB
:10018000F0E0C09357008491B7D0E2E0F0E0C09374
:1001900057008491B1D0E4E0F0E0C093570084911F
:1001A000ABD0EFE0F0E0C09357008491A5D0EEE033
:1001B000F0E0C093570084919FD0E1E1F0E0C0935C
:1001C0005700849199D0E0E1F0E0C093570084910A
:1001D00093D0E3E1F0E0C093570084918DD0E2E149
:1001E000F0E0C0935700849187D0E5E1F0E0C09340
:1001F0005700849181D0E7E1F0E0C09357008491EB
:100200007BD0E6E1F0E0C09357008491DF91CF917D
:1002100073C0CF93DF931F92CDB7DEB7D09AD39A36
:10022000DB98D89860E085E091E019DF61E080E03C
:1002300091E015DF39D05AD189DF89DF78940CC07D
:1002400075D1811117C07FD0811122C085E091E066
:100250002DDF80E091E02ADFCE01019670D1882366
:1002600079F3698185E091E001DF898145D05ED134
:10027000882349F3CE0101964ED0882321F369816A
:1002800080E091E0F3DE898157D15DD08823F1F2DF
:100290005FD0182F682F85E091E028DF612F80E084
:1002A00091E024DF58D0D2CFCF93DF931F92CDB708
:1002B000DEB7BA9AD59A979A8BB780618BBF1092A6
:1002C0000C0210920D0210928A0110928B0180ECA8
:1002D0008093B2008091B1008983E0EBF0E08081EF
:1002E000898389811082E0E7F0E080818F7E8083BE
:1002F0000F90DF91CF910895F894ADE0B2E0EC91CA
:10030000F0E0E457FE4F80838C918F5F8F778C9362
:10031000C29A78940895DC0120918A0190918B0112
:10032000291779F0E0918A01F0E0E65FFE4F8081C5
:100330008C9380918A018F5F8F7780938A0181E00F
:10034000089580E00895809111028295817008954A
:1003500080910E02089580911102877E8093110290
:1003600010920E0208951F920F920FB60F92112451
:100370002F933F938F939F93EF93FF93CF9928C031
:100380001092100280911102982F9D7F909311027C
:10039000282F247082FD1CC010920F0230910C0295
:1003A00080910D02381791F0E0910C02F0E0E457D3
:1003B000FE4F808180930F0280910C028F5F8F77B8
:1003C00080930C0294609093110221E02093B0007E
:1003D000FF91EF919F918F913F912F910F900FBEC1
:1003E0000F901F9018951F920F920FB60F92112425
:1003F0002F933F938F939F93EF93FF93C298809196
:1004000010029091B00080FD16C0903F09F462C0C8
:100410009F3009F465C09091110292FF4BC080910A
:100420000F028093B000809111028B7F80931102A4
:10043000809110023FC08091110283FF05C090930C
:100440000E0280618093110281FF0FC08D7F809327
:100450001102E0918B01F0E0E65FFE4F90839091F6
:100460008B019F5F9F7790938B01982F947082FDF3
:100470001AC010920F0230910C0220910D02321717
:1004800091F0E0910C02F0E0E457FE4F90819093E0
:100490000F0290910C029F5F9F7790930C028460F3
:1004A0008093110294E081E0992391F08093B00051
:1004B000809110028F5F80931002FF91EF919F91C6
:1004C0008F913F912F910F900FBE0F901F90189515
:1004D00080E0ECCF909111029860909311029DCF33
:1004E0009091110292609093110297CFCF93DF9376
:1004F0001F92CDB7DEB7109286008FE190E0909307
:1005000082008093810086E08093840088E180935C
:100510008500E0E7F0E080818F7D8083809180001E
:10052000898389810F90DF91CF9108958091860012
:1005300085FB882780F90895809380000895FC0149
:100540009091860097FD02C080E008958091800020
:10055000808381E00895E199FECF9FBB8EBBE09A36
:0A05600099278DB30895F894FFCF9A
:00000001FF
